:100FE900082D0A0A0A0A0A0A0A0A0821000000004A
:100FF9000000000008430000000000000000013C60
:0110090019CD
:100EFF00E5397072753901120F768F3AE538653A18
:100F0F00FF553AF537E53AF45FF541853A38E5375D
:100F1F0024FB604D24FD60271460342405704705C1
:100F2F004BE54B64037002F54BAF4B7E00EF640152
:100F3F007003853C42EF64024E702B85423C22E5E4
:100F4F004B640170211542E542F4701AF54222E517
:100F5F004B640170110542E5426464700975426388
:070F6F0022A200B392002250
:100D2300E53645356003020DEAF5357536011210D7
:100D3300E18F2C8E2B8D2A8C29E54B14603D14609A
:100D43005D24026003020DEA752D0BAF2CAE2BADB3
:100D53002AAC29120B55EF75F00A8475F00A8485C5
:100D6300F031EF75F00A8485F032E4FFFE7DC87C34
:100D730042AB2CAA2BA92AA8298042752D0C7532C7
:100D83000A75310AE54275F00A8475F00A8485F024
:100D930033E54275F00A8485F034E4F52622752D97
:100DA3000DAF40AE3FAD3EAC3D120B558F32E4FF6D
:100DB300FE7DC87C42AB40AA3FA93EA83D1208F87D
:100DC300120B55AB07AA067C007D0A120BE87C00C8
:100DD3007D0A120BE88D337C007D0AAF03AE02124D
:080DE3000BE88D347526012296
:100C4B0020002AAC3CE4120B21AB2CAA2BA92AA81E
:100C5B0029120A9E600C400AE4F540F53F753EA050
:100C6B00804AE4F540F53FF53EF53D8068E4FFFE34
:100C7B007DA07C41AB2CAA2BA92AA829120A9E5035
:100C8B000DE4F540F53F753E80753D3F8047E4FF31
:100C9B00FE7D207C42AB2CAA2BA92AA829120A9EE6
:100CAB00600F400DE4F540F53F753E80753D40808B
:100CBB00247F9A7E997D197C3EAB2CAA2BA92AA85E
:100CCB00291208F8E4FBFAF978C01208078F408E56
:100CDB003F8D3E8C3DE4FFFE7D4C7C42AB40AA3FFA
:100CEB00A93EA83D1208F8120B5512120F20000452
:100CFB007F0180027F008F43E4FFEFC39403748076
:100D0B0094805013EFB54B047E0180027E00744437
:070D1B002FF8A6060F80E38C
:010D220022AE
:10126D00538E7F5389F0758A18758CFCC28DD28C84
:05127D00D2A9D2AF224E
:03000B00020E776B
:100E7700C0E0C0F0C083C082C0D075D000C000C041
:100E870001C002C003C004C005C006C0070539E59C
:100E970039640A7002F5390536E53670020535FF03
:100EA700AE35BE0109BFF406753500753600053B42
:100EB700E53B64087002F53B742D253BF8E6FD7CA5
:100EC700007421253BF8E6FB7A00AF3B12107274E1
:100ED70043253BF8E6FD7C00AF3B121037D007D027
:100EE70006D005D004D003D002D001D000D0D0D096
:080EF70082D083D0F0D0E0327C
:0C12A5007F237E337DB6DDFEDEFCDFFA29
:0112B100221A
:101229001210E11212A51211F212126D120EFF1212
:071239000D23120C4B80F5A0
:10100A00014C00014DFF014E00014FFF015000014C
:02101A0051FF84
:10103700ED4C600FA8077401088002C333D8FC4247
:101047004C800EA8077401088002C333D8FCF45201
:101057004CE54C654D6013E54CF4F580E5A0541F55
:0A1067004480F5A053A01F854C4DF6
:01107100225C
:10118900EF6005434E408003534EBFE54E654F6007
:1011990011854E80E5A0541F44A0F5A053A01F85DA
:0211A9004E4FA7
:0111AB002221
:1011AC00EF600543501080035350EFE550655160DC
:1011BC0011855080E5A0541F44A0F5A053A01F85B5
:0211CC00505180
:0111CE0022FE
:10101C000E08C0F9A4B0999282F88090FFC68C8813
:0A102C00081601020408102040809D
:101072007580FFE5A0541F44E0F5A053A01F74162D
:101082002FF8E6F580E5A0541F44C0F5A053A01F39
:1010920074082DF8E6F580EB4A600353807FE5A0E3
:0A10A200541F44E0F5A053A01F22E4
:100F7600E4FFC2C4D2C2D2B5D2B420B3027F0420E9
:100F8600B2027F0520B1027F0620B0027F07D2C4DD
:100F9600C2C2D2B5D2B420B3027F0820B2027F0902
:100FA60020B1027F0A20B0027F0BD2C4D2C2C2B5E2
:100FB600D2B420B3027F0C20B2027F0D20B1027F93
:100FC6000E20B0027F0FD2C4D2C2D2B5C2B420B3B3
:100FD600027F1020B2027F1120B1027F1220B002E0
:020FE6007F1377
:010FE80022E6
:1011F2007580FFE5A0541F4480F5A053A01FE4F5BD
:0D12020080E5A0541F44A0F5A053A01F22BA
:0412B200D2A07F0542
:0812B60000AE071FEE70F922E3
:0F129600D2A11212B2C2A17F051212B6C2A022BB
:0C12BE00C2A11212B2D2A17F050212B62A
:10124000C2A0A20192A17F051212B61212B2C2A0D0
:07125000D2A17F050212B6D6
:031282001210AC9B
:101285001212B2A2A19202C2A07F051212B6A20248
:011295002236
:0210AC00AD078E
:1010AE00E4FCECC39408748094805024C2A07F05A5
:1010BE001212B6ED30E704D2A18002C2A17F051252
:1010CE0012B6D2A0ED25E0FD7F051212B60C80D22D
:0210DE00C2A0AE
:0110E00022ED
:10116300E4FCECC394087480948050171212B2ED1F
:1011730025E0FD30A103430501C2A07F051212B68D
:051183000C80DFAF0548
:011188002244
:10120F00AB071212967F901212827F41121282AF99
:0A121F00031210AC1212850212BE79
:041257007F057E0091
:10125B007C007D0C120BD6EF1FAC0670011E4C7080
:02126B00F62269
:02111500AB0726
:10111700E4FAEAC39408748094805012C294EB13E3
:101127009294121257D294EBC313FB0A80E47F0503
:051137007E0002125BC6
:1011CF00E4FAEAC39408748094805014C294EBC379
:1011DF0013FBD2943094034303801212570A80E218
:0211EF00AF034C
:0111F10022DB
:10113C00C202D2947F0C7E0012125BC2947F507E4E
:10114C000012125BD2947F0A7E0012125BA2949260
:06115C0002121257A2026C
:01116200226A
:1010E10012113C7FCC1211157F4412111512113CC3
:1010F1007FCC1211157FBE1211151211CFA9071243
:1011010011CFEFAD01FCEC120B1CE4FBFA798078F6
:0411110041020A018C
:10080000020BC1E86480F8E933E83360110460F05A
:10081000ED33EC337009E8FCE9FDEAFEEBFF22045E
:1008200060DED3EB9FEA9EE99DE8C2E78CF0C2F759
:1008300095F0400CE8CCF8E9CDF9EACEFAEBCFFB25
:10084000120B8C85D0F05804700320D5B3E80470E7
:10085000075002B2D5020BCB92D5EC0460F7E4CC82
:10086000C0E0C398F8603B94186008400DD0E0FBEE
:10087000020BA3E4FBFAC9FC8028E830E406E4C9D3
:10088000FBE4CAFCE830E305E4C9CACBFCE8540742
:100890006010F8C3E913F9EA13FAEB13FBEC13FC4D
:1008A000D8F130F52FC3E49CFCEF9BFFEE9AFEEDF0
:1008B00099FDD0E0FBEF4E4D4C701222DB03020B92
:1008C000C8EC2CFCEF33FFEE33FEED33FDED30E7EB
:1008D000EB020BA3EF2BFFEE3AFEED39FDD0E0FB70
:1008E00050130BBB0003020BCBED13FDEE13FEEF19
:0808F00013FFEC13FC020BA343
:1008F800EC4D6011E8497017ED33EC3304600DE4FA
:10090800FCFFFEFD22E933E8330470F8020BC11244
:100918000B8C58046009E4CC248150062850090245
:100928000BCB284003020BC8C0E0EB4A7044B980E7
:1009380006D0E0FB020BB7EF4E701CBD8008EBFF42
:10094800EAFEE9FD80EBE98DF0A4FEE5F00209E19D
:10095800E9CDF9EAFEEBFFEF89F0A4FCE5F0CE89DA
:10096800F0A42EFFE435F0CD89F0A42DFEE435F097
:100978008067EF4E7005BD80D780C3EF8BF0A4ACC5
:10098800F0EE8BF0A42CFCE435F0F8EF8AF0A42C00
:10099800E5F038FCE433CB8DF0A42CFCE5F03BF813
:1009A800EE8AF0A42CFCE5F038F8E433CF89F0A403
:1009B8002CFCE5F038CF3400CE89F0A42FFFE5F009
:1009C8003EFEE433C98DF0A42EFEE5F039CD8AF061
:1009D800A42FFFE5F03EFEE43DFD33D0E0FB5007D9
:1009E8000BBB000F020BCBEC2CFCEF33FFEE33FEFE
:0609F800ED33FD020BA32C
:1009FE00020BCBEC5D046005E859047003020BC1D9
:100A0E00120B8C580460F6EC4860F2EC7004FDFE9C
:100A1E00FF22C860DB2481C85009C39860025006CB
:100A2E00020BC89850CAF582E9294B4A7005AB8271
:100A3E00020BB775F0007C1A7880C3EF9BEE9AED2F
:100A4E0099400DC3EF9BFFEE9AFEED99FDE842F043
:100A5E00DC23ACF0D0E0FFD0E0FED0E0FDAB822096
:100A6E00E7101BEB60BAEC2CFCEF33FFEE33FEED20
:100A7E0033FD020BA3E803F830E705C0F075F00074
:100A8E00EF2FFFEE33FEED33FD40B830E7C280AA04
:100A9E0074F8CC6480CCC86480C8F58204604FC3FF
:100AAE00EB9FF5F0EA9E42F0E99D42F0E89C45F09E
:100ABE00603C501DE5825FFFE582D313CB5BCBF428
:100ACE002B5582FB50280ABA002409B90020088051
:100ADE001DE5825BFBE582D313CF5FCFF4C3132FEB
:100AEE005582FF50090EBE00050DBD00010CC3EB73
:100AFE009FF5F0EA9E42F0E99D42F0E89C45F060D9
:090B0E0007CC4820E701B3EC22FA
:100B170075F020800E75F010800575F0087D007E59
:100B2700007F003392D530D503120C3DEC334010D3
:100B3700EF33FFEE33FEED33FDEC33FCD5F0ED2262
:0E0B4700E5F0247EA2D513CC92E7CDCEFF229E
:100B5500EDD2E7CD33EC3392D524814006E4FFFE98
:100B6500FDFC22FCE4CFCECDCC24E0501174FF80F7
:100B7500EDC3CC13CCCD13CDCE13CECF13CF047094
:070B8500F030D5DE020C3D4B
:100B8C00E9D2E7C933E833F892D5EDD2E7CD33ECAF
:070B9C0033FC5002B2D52228
:100BA300EC30E7100FBF000C0EBE00080DBD0004B3
:100BB3000BEB6014A2D5EB13FCED92E7FD2274FF5F
:100BC300FCFDFEFF22E480F8A2D574FF13FC7D80B8
:030BD300E480EFCC
:03000000020DEB03
:0C0DEB00787FE4F6D8FD758151020E32CD
:100BD600EF8DF0A4A8F0CF8CF0A428CE8DF0A42E33
:020BE600FE22ED
:100BE800BC000BBE0029EF8DF084FFADF022E4CCF1
:100BF800F875F008EF2FFFEE33FEEC33FCEE9DECBA
:100C0800984005FCEE9DFE0FD5F0E9E4CEFD22EDFF
:100C1800F8F5F0EE8420D21CFEADF075F008EF2F49
:100C2800FFED33FD4007985006D5F0F222C398FD3A
:050C38000FD5F0EA22D7
:0E0C3D00C3E49FFFE49EFEE49DFDE49CFC22C8
:100DF700021229E493A3F8E493A34003F68001F2D7
:100E070008DFF48029E493A3F85407240CC8C333FC
:100E1700C4540F4420C8834004F456800146F6DFCB
:100E2700E4800B0102040810204080900FE9E47E63
:100E3700019360BCA3FF543F30E509541FFEE493C0
:100E4700A360010ECF54C025E060A840B8E493A387
:100E5700FAE493A3F8E493A3C8C582C8CAC583CAB2
:100E6700F0A3C8C582C8CAC583CADFE9DEE780BE6A
:0110360000B9
:00000001FF
