:100DF80008420A0A0A0A0A0A0A0A08240000000025
:100E0800000000000861000000000000000003214D
:0F0E18000B0C0D044A41F00000043E41A0000005
:100D9100200063D200120CB58F54E5516554FF5504
:100DA10054F550E554F45FF55E855451E55424FB48
:100DB1006012047041E550603D0569E569640170A8
:100DC10035F56922E550602E055FE55F6028FB7A05
:100DD10000700D854D5C854C5B854B5A854A5922C7
:100DE100EB64014A700D854158854057853F568512
:070DF1003E5522E4F55F22EC
:100D2800200265D20212108F8F3D8E3C8D3B8C3A8B
:100D3800E56914601904705075420B75460A7547C9
:100D48000A75450AAF3DAE3CAD3BAC3A80287542CA
:100D58000CAF4DAE4CAD4BAC4A1209E4EF75F00A3E
:100D680084F545EF75F00A8485F04675470AAF416A
:100D7800AE40AD3FAC3E1209E4EF75F00A84F54889
:090D8800EF75F00A8485F04922A0
:011396002234
:10114300E5606021C3E553940AE55294004016C25A
:1011530001E4F552F553AF60FEFDFB7A00792E12E0
:061163000B42E4F56022DE
:10135900538E7F5389F0438905E4F58AF58CC28D54
:03136900D28C2201
:10131B00538EBF53890F758B18758DFCC28FD28E70
:05132B00D2ABD2AF229D
:03001B00020B6E67
:100B6E00C0E0C0F0C083C082C0D075D000C000C04D
:100B7E0001C002C003C004C005C006C007054FE592
:100B8E004F7002054EFFAE4EBE010BBF9008754E64
:100B9E0000754F00C202AE4EAF4F7C007D0A120AA6
:100BAE00DFED4C7002C2003001080553E5537002B0
:100BBE0005520539E53970020538FFAE38BE031906
:100BCE00BFE816753800753900AF8CEFAD8AF52C7D
:100BDE00EDF52D758C00758A00E54F5407FBFF244B
:100BEE0042F8E6FD7C0074242BF8E6FB7A00120F27
:100BFE00B4E54F5407FF2461F8E6FD7C00120F792F
:100C0E00D007D006D005D004D003D002D001D0003A
:0B0C1E00D0D0D082D083D0F0D0E032E4
:0300230002105B6D
:10105B00C0E0C0D075D000C000309813D2017552DB
:10106B0000755300742E2560F8A6990560C298D3BD
:10107B00E560940A748094804003756000D000D0C2
:04108B00D0D0E032AF
:1012410012127F12131B7B007A007921120E5312A6
:101251001304120D91120D2812139612114380F2EC
:100E2700016A00016BFF016C00016DFF016E00019B
:020E37006FFF4B
:100F7900ED4C600FA8077401088002C333D8FC4206
:100F89006A800EA8077401088002C333D8FCF452A2
:100F99006AE56A656B6013E56AF4F580E5A0541F9C
:0A0FA9004480F5A053A01F856A6B79
:010FB300221B
:1011D800EF6005436C408003536CBFE56C656D6040
:1011E80011856C80E5A0541F44A0F5A053A01F856D
:0211F8006C6D1C
:0111FA0022D2
:1011FB00EF6005436E108003536EEFE56E656F6015
:10120B0011856E80E5A0541F44A0F5A053A01F8547
:02121B006E6FF4
:01121D0022AE
:100E39000D08C0F9A4B0999282F88090FFC68C0879
:090E49001501020408102040808C
:100FB4007580FFE5A0541F44E0F5A053A01F7415ED
:100FC4002FF8E6F580E5A0541F44C0F5A053A01FF8
:100FD40074082DF8E6F580EB4A600353807FE5A0A2
:0A0FE400541F44E0F5A053A01F22A3
:100CB500E4FFC2C4D2C2D2B5D2B420B3027F0420AD
:100CC500B2027F0520B1027F0620B0027F07D2C4A1
:100CD500C2C2D2B5D2B420B3027F0820B2027F09C6
:100CE50020B1027F0A20B0027F0BD2C4D2C2C2B5A6
:100CF500D2B420B3027F0C20B2027F0D20B1027F57
:100D05000E20B0027F0FD2C4D2C2D2B5C2B420B376
:100D1500027F1020B2027F1120B1027F1220B002A3
:020D25007F133A
:010D270022A9
:10127F007580FFE5A0541F4480F5A053A01FE4F52F
:0D128F0080E5A0541F44A0F5A053A01F222D
:10130400759850438E01438E0475D7C775D6FE4336
:071314008E10D2ACD2AF2213
:081387008F993099FDC29922F3
:10129C00E4FEEEC3940874809480500FC297EF1351
:0B12AC0092A3EFC313FFD2970E80E760
:0112B7002214
:10134500C29300C29700D2930012129CAF051212ED
:041355009CC2932281
:100F3C00E4FDC29300C29700D2930012129CE4FF0E
:100F4C00EFC39408748094805011C297EDC313FDC5
:100F5C0030A303430580D2970F80E5C29300C2975C
:0C0F6C0000D29700C2A300D2A300AF0582
:010F78002256
:060E53008B1D8A1E891FA1
:100E5900E4FD7F8E121345E4FCECC3940374809483
:100E6900805036EC25E0FFC374849FFFAB1DAA1E9A
:100E7900A91F8C82758300120A7EFE75F00A84759B
:100E8900F00A84ADF0EDC454F0FDEE75F00A84E586
:100E9900F04DFD1213450C80C07D807F8E021345F5
:060EA9008B708A71897252
:100EAF00E4F573C3E573940374809480503CE57349
:100EBF0025E0FFC374859FFF120F3C7574008F757B
:100ECF00E574C4F854F0C8E575C4540F4875F00ABA
:100EDF00A4FFE575540F2FAB70AA71A972857382A9
:0A0EEF00758300120ABD057380B977
:010EF90022D6
:0412B800D2A07F0A37
:1012BC00000000000000000000000000000000AE74
:0612CC00071FEE70EB228B
:0F136C00D2A11212B8C2A17F0A1212BCC2A022D3
:0C137B00C2A11212B8D2A17F0A0212BC5B
:02102600AD0714
:10102800E4FCECC39408748094805024C2A07F0A26
:101038001212BCED30E704D2A18002C2A17F0A12CD
:1010480012BCD2A0ED25E0FD7F0A1212BC0C80D2A2
:02105800C2A034
:01105A002273
:10116900E4FCECC394087480948050171212B8ED13
:1011790025E0FD30A103430501C2A07F0A1212BC7C
:051189000C80DFAF0542
:01118E00223E
:1011B400AB0512136C7FA01210261211C6AF0312D6
:0211C4001026F3
:1011C6001212B8A2A1E433FDC2A07F0A1212BCAF6C
:0111D6000513
:0111D70022F5
:1012EC00C2A0EF24FF92A17F0A1212BC1212B8C244
:0812FC00A0D2A17F0A0212BC7E
:02118F00AB07AC
:1011910012136C7F901211BB12136C7F91121026E7
:1011A1001211C6121169AD077F011212EC12137BE5
:0211B100AF0588
:0111B3002219
:10133000AB0712136C7F901210261211C67F411258
:0513400011BB02137B4C
:1010C3008B768A7789781211B4AF7A157AEF601F1D
:1010D300AB760578E578AA777002057714F9120ADA
:1010E30065FF1210261211C67FC81212BC80DA02E5
:0210F300137B6D
:100EFA008B7B8A7C897D1211B412136C7FA112102C
:100F0A00261211C6AF7F157FEF6024121169AB7BE1
:100F1A00057DE57DAA7C7002057C14F9EF120AAB07
:100F2A00E57F6004E4FF80027F011212EC80D502A3
:020F3A00137B27
:041261007F057E0087
:10126500EF1FAA0670011E4A600FE4FDEDC3940C42
:091275007480948050EA0D80F3AE
:01127E00224D
:0210F500A90749
:1010F700E4FBEBC39408748094805012C294E91304
:101107009294121261D294E9C313F90B80E47F051C
:051117007E00021265DC
:10121E00E4FBEBC39408748094805014C294ECC326
:10122E0013FCD2943094034304801212610B80E2BB
:02123E00AF04FB
:01124000228B
:10111C00C203D2947F0C7E00121265C2947F507E63
:10112C0000121265D2947F0A7E00121265A294926C
:06113C0003121261A20380
:01114200228A
:10108F0012111C7FCC1210F57F441210F512111C97
:10109F007FCC1210F57FBE1210F512121EA9071287
:1010AF00121EEFAD01FCEC1209ABE4FBFA7980786C
:0410BF0041020909D8
:06138F0000007F21DFFEDB
:011395002235
:1012D200E4FEEEC3940874809480500DD2901213F1
:0912E2008FC29012138F0E80E9F7
:0112EB0022E0
:100FEE00E4F5D9F5E9F5F91212D2D2DE30910330DB
:100FFE00DFFAC2DE20DF1CAFF9EFFEADE9EDFFAC8C
:10100E0006E41209AB7B967A43798B783C12080082
:07101E000209E4C2DF7F00BC
:0110250022A8
:10080000EC4D6011E8497017ED33EC3304600DE4F2
:10081000FCFFFEFD22E933E8330470F8020A5012AF
:100820000A1B58046009E4CC2481500628500902B0
:100830000A5A284003020A57C0E0EB4A7044B980C4
:1008400006D0E0FB020A46EF4E701CBD8008EBFFAD
:10085000EAFEE9FD80EBE98DF0A4FEE5F00208E98F
:10086000E9CDF9EAFEEBFFEF89F0A4FCE5F0CE89D3
:10087000F0A42EFFE435F0CD89F0A42DFEE435F090
:100880008067EF4E7005BD80D780C3EF8BF0A4ACBE
:10089000F0EE8BF0A42CFCE435F0F8EF8AF0A42CF9
:1008A000E5F038FCE433CB8DF0A42CFCE5F03BF80C
:1008B000EE8AF0A42CFCE5F038F8E433CF89F0A4FC
:1008C0002CFCE5F038CF3400CE89F0A42FFFE5F002
:1008D0003EFEE433C98DF0A42EFEE5F039CD8AF05A
:1008E000A42FFFE5F03EFEE43DFD33D0E0FB5007D2
:1008F0000BBB000F020A5AEC2CFCEF33FFEE33FE69
:06090000ED33FD020A3296
:10090600020A5AEC5D046005E859047003020A50B5
:10091600120A1B580460F6EC4860F2EC7004FDFE07
:10092600FF22C860DB2481C85009C39860025006C4
:10093600020A579850CAF582E9294B4A7005AB82DC
:10094600020A4675F0007C1A7880C3EF9BEE9AED9A
:1009560099400DC3EF9BFFEE9AFEED99FDE842F03C
:10096600DC23ACF0D0E0FFD0E0FED0E0FDAB82208F
:10097600E7101BEB60BAEC2CFCEF33FFEE33FEED19
:1009860033FD020A32E803F830E705C0F075F000DF
:10099600EF2FFFEE33FEED33FD40B830E7C280AAFD
:1009A60075F020800E75F010800575F0087D007ECC
:1009B600007F003392D530D503120B34EC33401050
:1009C600EF33FFEE33FEED33FDEC33FCD5F0ED22D5
:0E09D600E5F0247EA2D513CC92E7CDCEFF2211
:1009E400EDD2E7CD33EC3392D524814006E4FFFE0B
:1009F400FDFC22FCE4CFCECDCC24E0501174FF806A
:100A0400EDC3CC13CCCD13CDCE13CECF13CF047006
:070A1400F030D5DE020B34C7
:100A1B00E9D2E7C933E833F892D5EDD2E7CD33EC21
:070A2B0033FC5002B2D5229A
:100A3200EC30E7100FBF000C0EBE00080DBD000425
:100A42000BEB6014A2D5EB13FCED92E7FD2274FFD1
:100A5200FCFDFEFF22E480F8A2D574FF13FC7D802A
:030A6200E480EF3E
:03000000020C29C6
:0C0C2900787FE4F6D8FD75817F020C7026
:100A6500BB010689828A83E0225002E722BBFE028F
:090A7500E32289828A83E49322C2
:100A7E00BB010CE58229F582E5833AF583E022502D
:100A8E0006E92582F8E622BBFE06E92582F8E22277
:0D0A9E00E58229F582E5833AF583E4932291
:100AAB00BB010689828A83F0225002F722BBFE012A
:020ABB00F32224
:100ABD00F8BB010DE58229F582E5833AF583E8F06F
:100ACD00225006E92582C8F622BBFE05E92582C81B
:020ADD00F22203
:100ADF00BC000BBE0029EF8DF084FFADF022E4CCFB
:100AEF00F875F008EF2FFFEE33FEEC33FCEE9DECC4
:100AFF00984005FCEE9DFE0FD5F0E9E4CEFD22ED0A
:100B0F00F8F5F0EE8420D21CFEADF075F008EF2F53
:100B1F00FFED33FD4007985006D5F0F222C398FD44
:050B2F000FD5F0EA22E1
:0E0B3400C3E49FFFE49EFEE49DFDE49CFC22D2
:100B4200EF4E6012EF60010EEDBB010B89828A83CA
:100B5200F0A3DFFCDEFA2289F05007F709DFFCA9D7
:0C0B6200F022BBFEFCF309DFFCA9F0222E
:100C3500021241E493A3F8E493A34003F68001F282
:100C450008DFF48029E493A3F85407240CC8C333C0
:100C5500C4540F4420C8834004F456800146F6DF8F
:100C6500E4800B0102040810204080900DF8E47E1A
:100C7500019360BCA3FF543F30E509541FFEE49384
:100C8500A360010ECF54C025E060A840B8E493A34B
:100C9500FAE493A3F8E493A3C8C582C8CAC583CA76
:100CA500F0A3C8C582C8CAC583CADFE9DEE780BE2E
:010E5200009F
:00000001FF
